{"abi":[{"type":"constructor","inputs":[{"name":"_boardVerifier","type":"address","internalType":"contract Verifier"},{"name":"_attackVerifier","type":"address","internalType":"contract Verifier"}],"stateMutability":"nonpayable"},{"type":"function","name":"abortGame","inputs":[{"name":"gameId","type":"uint256","internalType":"uint256"}],"outputs":[],"stateMutability":"nonpayable"},{"type":"function","name":"emptyGamePointer","inputs":[],"outputs":[{"name":"","type":"uint256","internalType":"uint256"}],"stateMutability":"view"},{"type":"function","name":"games","inputs":[{"name":"","type":"uint256","internalType":"uint256"}],"outputs":[{"name":"boardCommitment1","type":"uint256","internalType":"uint256"},{"name":"boardCommitment2","type":"uint256","internalType":"uint256"},{"name":"player1","type":"address","internalType":"address"},{"name":"player2","type":"address","internalType":"address"},{"name":"hitCounter1","type":"uint8","internalType":"uint8"},{"name":"hitCounter2","type":"uint8","internalType":"uint8"},{"name":"hitTargets1","type":"uint256","internalType":"uint256"},{"name":"hitTargets2","type":"uint256","internalType":"uint256"},{"name":"turn","type":"uint8","internalType":"uint8"},{"name":"lastMove","type":"uint32","internalType":"uint32"},{"name":"target","type":"uint8","internalType":"uint8"},{"name":"gameEnded","type":"bool","internalType":"bool"},{"name":"winner","type":"bool","internalType":"bool"},{"name":"stake","type":"uint256","internalType":"uint256"},{"name":"withdrawn","type":"bool","internalType":"bool"}],"stateMutability":"view"},{"type":"function","name":"isGameTimeout","inputs":[{"name":"gameId","type":"uint256","internalType":"uint256"}],"outputs":[{"name":"","type":"bool","internalType":"bool"}],"stateMutability":"view"},{"type":"function","name":"joinGame","inputs":[{"name":"gameId","type":"uint256","internalType":"uint256"},{"name":"boardCommitment2","type":"uint256","internalType":"uint256"},{"name":"proof2","type":"tuple","internalType":"struct Verifier.Proof","components":[{"name":"a","type":"tuple","internalType":"struct Pairing.G1Point","components":[{"name":"X","type":"uint256","internalType":"uint256"},{"name":"Y","type":"uint256","internalType":"uint256"}]},{"name":"b","type":"tuple","internalType":"struct Pairing.G2Point","components":[{"name":"X","type":"uint256[2]","internalType":"uint256[2]"},{"name":"Y","type":"uint256[2]","internalType":"uint256[2]"}]},{"name":"c","type":"tuple","internalType":"struct Pairing.G1Point","components":[{"name":"X","type":"uint256","internalType":"uint256"},{"name":"Y","type":"uint256","internalType":"uint256"}]}]}],"outputs":[],"stateMutability":"payable"},{"type":"function","name":"makeMove","inputs":[{"name":"gameId","type":"uint256","internalType":"uint256"},{"name":"target","type":"uint8","internalType":"uint8"}],"outputs":[],"stateMutability":"nonpayable"},{"type":"function","name":"newGame","inputs":[{"name":"boardCommitment1","type":"uint256","internalType":"uint256"},{"name":"proof1","type":"tuple","internalType":"struct Verifier.Proof","components":[{"name":"a","type":"tuple","internalType":"struct Pairing.G1Point","components":[{"name":"X","type":"uint256","internalType":"uint256"},{"name":"Y","type":"uint256","internalType":"uint256"}]},{"name":"b","type":"tuple","internalType":"struct Pairing.G2Point","components":[{"name":"X","type":"uint256[2]","internalType":"uint256[2]"},{"name":"Y","type":"uint256[2]","internalType":"uint256[2]"}]},{"name":"c","type":"tuple","internalType":"struct Pairing.G1Point","components":[{"name":"X","type":"uint256","internalType":"uint256"},{"name":"Y","type":"uint256","internalType":"uint256"}]}]},{"name":"player2","type":"address","internalType":"address"}],"outputs":[],"stateMutability":"payable"},{"type":"function","name":"resolveMove","inputs":[{"name":"gameId","type":"uint256","internalType":"uint256"},{"name":"isHit","type":"uint256","internalType":"uint256"},{"name":"proof","type":"tuple","internalType":"struct Verifier.Proof","components":[{"name":"a","type":"tuple","internalType":"struct Pairing.G1Point","components":[{"name":"X","type":"uint256","internalType":"uint256"},{"name":"Y","type":"uint256","internalType":"uint256"}]},{"name":"b","type":"tuple","internalType":"struct Pairing.G2Point","components":[{"name":"X","type":"uint256[2]","internalType":"uint256[2]"},{"name":"Y","type":"uint256[2]","internalType":"uint256[2]"}]},{"name":"c","type":"tuple","internalType":"struct Pairing.G1Point","components":[{"name":"X","type":"uint256","internalType":"uint256"},{"name":"Y","type":"uint256","internalType":"uint256"}]}]}],"outputs":[],"stateMutability":"nonpayable"},{"type":"function","name":"timeoutGame","inputs":[{"name":"gameId","type":"uint256","internalType":"uint256"}],"outputs":[],"stateMutability":"nonpayable"},{"type":"function","name":"withdraw","inputs":[{"name":"gameId","type":"uint256","internalType":"uint256"}],"outputs":[],"stateMutability":"nonpayable"},{"type":"event","name":"Attack","inputs":[{"name":"gameId","type":"uint256","indexed":false,"internalType":"uint256"},{"name":"target","type":"uint256","indexed":false,"internalType":"uint256"}],"anonymous":false},{"type":"event","name":"GameWon","inputs":[{"name":"gameId","type":"uint256","indexed":false,"internalType":"uint256"},{"name":"winner","type":"bool","indexed":false,"internalType":"bool"}],"anonymous":false},{"type":"event","name":"NewGame","inputs":[{"name":"gameId","type":"uint256","indexed":false,"internalType":"uint256"},{"name":"player1","type":"address","indexed":false,"internalType":"address"},{"name":"player2","type":"address","indexed":false,"internalType":"address"},{"name":"stake","type":"uint256","indexed":false,"internalType":"uint256"}],"anonymous":false}],"bytecode":{"object":"0x608034609357601f6112f238819003918201601f19168301916001600160401b03831184841017609757808492604094855283398101031260935780516001600160a01b0381169190829003609357602001516001600160a01b038116919082900360935760018060a01b0319600254161760025560018060a01b0319600354161760035560405161124690816100ac8239f35b5f80fd5b634e487b7160e01b5f52604160045260245ffdfe6080806040526004361015610012575f80fd5b5f3560e01c908163117a5b9014610dca575080632e1a7d4d14610c09578063449c0691146109cd5780637539a751146106b55780637fd6f7c4146104fe578063940f3883146104d65780639e231e2d14610442578063ac5b181014610425578063b0d78a1d146102505763c1e6d2671461008a575f80fd5b61014036600319011261024c5760043561010036602319011261024c57610124356001600160a01b038116919082900361024c5760025460405191906001600160a01b03166100d883610ed5565b81835260405163f48d772960e01b81529283906100f9600483016024610f2b565b5f61010483015b6001821061023257505050610124816020935afa9182156102275760069261012f915f916101f8575b50610f6e565b6001545f9081526020819052604090206002810180546001600160a01b03191633179055908155826101df575b346101d4575b0160ff60281b80198254161790557f71b800a6de25dee7aeb786de97b33969abd0ccc21013cf61b26cd973c77c0af7608060015492604051908482523360208301526040820152346060820152a1600181018091116101c057600155005b634e487b7160e01b5f52601160045260245ffd5b346007820155610162565b6003810180546001600160a01b0319168417905561015c565b61021a915060203d602011610220575b6102128183610ef1565b810190610f13565b5f610129565b503d610208565b6040513d5f823e3d90fd5b829350602080916001939451815201930191018592610100565b5f80fd5b3461024c57602036600319011261024c57600435805f525f60205260405f2060068101549060ff8260301c166103eb5760010154156103945763ffffffff8160081c16606481018091116101c057431115610356577f5f5b63445179d2bf6880ccd394c0f384b0e4b48fbe3f718b1705eb13c8ceef389160ff8060409360018116155f146103405760281c1603610339575f5b815f525f6020526006835f2001660100000000000081549261030b60ff8560301c1615611055565b15159267ff000000000000008460381b169067ffff00000000000019161717905582519182526020820152a1005b60016102e3565b60281c16036103505760016102e3565b5f6102e3565b60405162461bcd60e51b815260206004820152601660248201527511d85b59481b9bdd081e595d081d1a5b5959081bdd5d60521b6044820152606490fd5b60405162461bcd60e51b815260206004820152602960248201527f43616e6e6f742074696d656f757420612067616d65206265666f7265206974206044820152683430b9903132b3bab760b91b6064820152608490fd5b60405162461bcd60e51b815260206004820152601260248201527111d85b5948185b1c9958591e48195b99195960721b6044820152606490fd5b3461024c575f36600319011261024c576020600154604051908152f35b3461024c57602036600319011261024c57600435805f525f60205260405f209060018060a01b0360028301541633036104a15761049a60ff60068461048e600161049f97015415610fcd565b015460301c1615611012565b6111a7565b005b60405162461bcd60e51b815260206004820152600d60248201526c4e6f7420796f75722067616d6560981b6044820152606490fd5b3461024c57602036600319011261024c5760206104f460043561115e565b6040519015158152f35b3461024c57604036600319011261024c5760243560043560ff821680830361024c57815f525f60205260405f2090600682019283549161054460ff8460301c1615611055565b60ff808460281c160361067057607981101561063a5761049f957f722bf2499704ddf6a39d5d4255ae6b6ed3dab17d2fb7155f877f86d53b8382469460409460011661060e576105a160018060a01b0360028301541633146110a4565b6105cf60046105af846110e8565b9201916105c08354809216156110fa565b6105c9846110e8565b90611151565b90555b60ff60281b86549160281b169060ff60281b191617855582519182526020820152a1805464ffffffff0019164360081b64ffffffff0016179055565b61062560018060a01b0360038301541633146110a4565b61063360056105af846110e8565b90556105d2565b60405162461bcd60e51b815260206004820152600e60248201526d125b9d985b1a59081d185c99d95d60921b6044820152606490fd5b60405162461bcd60e51b815260206004820152601e60248201527f50726576696f7573207475726e206e6f7420796574207265736f6c76656400006044820152606490fd5b3461024c576106c336610eaf565b90825f525f60205260405f20600681019384546106e660ff8260301c1615611055565b60ff808260281c1614610975576001166108bc5760018201549160018414610872575b50505b60018060a01b036003541691604051916060830183811067ffffffffffffffff82111761085e579061076c95939291604052825260ff865460281c1660208301526040820152604051938492630f9c5d4960e01b84526004840190610f2b565b5f61010483015b6003821061084457505050610164816020935afa908115610227575f91610825575b50156107e05761049f9060ff60281b8019825416178155805460ff6107bb818316611092565b64ffffffff001991161664ffffffffff19909116174360081b64ffffffff0016179055565b60405162461bcd60e51b815260206004820152601c60248201527f41747461636b2070726f6f6620646f6573206e6f7420766572696679000000006044820152606490fd5b61083e915060203d602011610220576102128183610ef1565b82610795565b829350602080916001939451815201930191018492610773565b634e487b7160e01b5f52604160045260245ffd5b60ff60036009920180548260a01b61088e848360a01c16611092565b60a01b16908360a01b19161780915560a01c16146108ad575b80610709565b6108b6906111a7565b846108a7565b815491600184146108cf575b505061070c565b60ff60036009920180548260a81b6108eb848360a81c16611092565b60a81b16908360a81b19161780915560a81c161461090a575b806108c8565b6040817f5f5b63445179d2bf6880ccd394c0f384b0e4b48fbe3f718b1705eb13c8ceef38925f525f6020526006825f20016601000000000000815461095560ff8260301c1615611055565b67ffff000000000000191617905581519081525f6020820152a184610904565b60405162461bcd60e51b815260206004820152602a60248201527f43616e6e6f74207265736f6c7665206265666f72652061206d6f766520686173604482015269206265656e206d61646560b01b6064820152608490fd5b610a116109d936610eaf565b60018060a09593951b0360025416906040516109f481610ed5565b85815260405163f48d772960e01b81529384926004840190610f2b565b5f61010483015b60018210610bef57505050610124816020935afa801561022757610a42915f91610bd05750610f6e565b5f90815260208190526040902060028101546001600160a01b031615610b95576001810191610a72835415610fcd565b6006820191610a8860ff845460301c1615611012565b6003810180546001600160a01b0316919082610b275780546001600160a01b03191633179055600791505b01543403610ad857909155805464ffffffff0019164360081b64ffffffff0016179055005b60405162461bcd60e51b815260206004820152602160248201527f4861766520746f206d6174636820746865207374616b6520707265636973656c6044820152607960f81b6064820152608490fd5b50903303610b3757600790610ab3565b60405162461bcd60e51b815260206004820152603060248201527f546869732067616d6520697320696e766974652d6f6e6c7920616e6420796f7560448201526f08185c99481b9bdd081a5b9d9a5d195960821b6064820152608490fd5b60405162461bcd60e51b815260206004820152601360248201527211d85b5948191bd95cc81b9bdd08195e1a5cdd606a1b6044820152606490fd5b610be9915060203d602011610220576102128183610ef1565b84610129565b829350602080916001939451815201930191018492610a18565b3461024c57602036600319011261024c576004355f525f60205260405f206006810154600160ff8260301c16151503610d9057600882019182549160ff8316610d4b5760381c60ff1615610d335760028101546001600160a01b0316330361024c575b6001810154610d0a575f80939281936001600784950154925b60ff1916179055335af13d15610d05573d67ffffffffffffffff811161085e5760405190610cbd601f8201601f191660200183610ef1565b81525f60203d92013e5b15610cce57005b60405162461bcd60e51b815260206004820152600f60248201526e151c985b9cd9995c8819985a5b1959608a1b6044820152606490fd5b610cc7565b60070154918260011b92808404600214901517156101c0575f8093928193926001839492610c85565b60038101546001600160a01b03163314610c6c575f80fd5b60405162461bcd60e51b815260206004820152601760248201527f5374616b6520616c72656164792077697468647261776e0000000000000000006044820152606490fd5b60405162461bcd60e51b815260206004820152601260248201527111d85b59481a185cc81b9bdd08195b99195960721b6044820152606490fd5b3461024c57602036600319011261024c576101e0906004355f525f60205260405f2080549060ff600182015460018060a01b0360028401541660038401548360048601549160058701549360068801549583600860078b01549a015416998b5260208b015260408a015260018060a01b03811660608a0152818160a01c1660808a015260a81c1660a088015260c087015260e086015281811661010086015263ffffffff8160081c16610120860152818160281c16610140860152818160301c16151561016086015260381c1615156101808401526101a083015215156101c0820152f35b61014060031982011261024c576004359161010060243592604319011261024c57604490565b6020810190811067ffffffffffffffff82111761085e57604052565b90601f8019910116810190811067ffffffffffffffff82111761085e57604052565b9081602091031261024c5751801515810361024c5790565b60c080610f6c93610f46818560208091803584520135910152565b604080850181830137604060808501608083013701910160208091803584520135910152565b565b15610f7557565b60405162461bcd60e51b815260206004820152602a60248201527f50726f6f66207468617420626f6172642069732077656c6c2d666f726d6564206044820152691a5cc81a5b9d985b1a5960b21b6064820152608490fd5b15610fd457565b60405162461bcd60e51b8152602060048201526016602482015275141b185e595c8c88185b1c9958591e481a9bda5b995960521b6044820152606490fd5b1561101957565b60405162461bcd60e51b815260206004820152601460248201527311d85b5948185b1c9958591e4818589bdc9d195960621b6044820152606490fd5b1561105c57565b60405162461bcd60e51b815260206004820152600e60248201526d11d85b59481a185cc8195b99195960921b6044820152606490fd5b60ff60019116019060ff82116101c057565b156110ab57565b60405162461bcd60e51b81526020600482015260156024820152744e6f7420796f7572207475726e206f722067616d6560581b6044820152606490fd5b60ff1660ff81116101c0576001901b90565b1561110157565b60405162461bcd60e51b815260206004820152602260248201527f596f7520616c72656164792061747461636b6564207468697320706f7369746960448201526137b760f11b6064820152608490fd5b919082018092116101c057565b5f525f60205260405f2060068101549060ff8260301c166111a157600101541561119c5763ffffffff9060081c16606481018091116101c057431190565b505f90565b50505f90565b60407f5f5b63445179d2bf6880ccd394c0f384b0e4b48fbe3f718b1705eb13c8ceef3891805f525f6020526006825f200167010100000000000081546111f360ff8260301c1615611055565b67ffff0000000000001916179055815190815260016020820152a156fea26469706673582212201b638290968e574edc2fa8415769d58157d43cec7ea999bc740ccdf5598a076664736f6c634300081c0033","linkReferences":{}},"methodIdentifiers":{"abortGame(uint256)":"9e231e2d","emptyGamePointer()":"ac5b1810","games(uint256)":"117a5b90","isGameTimeout(uint256)":"940f3883","joinGame(uint256,uint256,((uint256,uint256),(uint256[2],uint256[2]),(uint256,uint256)))":"449c0691","makeMove(uint256,uint8)":"7fd6f7c4","newGame(uint256,((uint256,uint256),(uint256[2],uint256[2]),(uint256,uint256)),address)":"c1e6d267","resolveMove(uint256,uint256,((uint256,uint256),(uint256[2],uint256[2]),(uint256,uint256)))":"7539a751","timeoutGame(uint256)":"b0d78a1d","withdraw(uint256)":"2e1a7d4d"},"id":23}